:100000000C94B2120C94DA120C94DA120C94AB1613
:100010000C94AB160C94AB160C94DA120C94691574
:100020000C94DA120C94DA120C94DA120C94DA12A0
:100030000C94DA120C94DA120C94DA120C94DA1290
:100040000C9461160C94DA120C9407150C94E114BC
:100050000C94DA120C94DA120C94DA120C94DA1270
:100060000C94DA120C94DA12D42B292C892CF72C4C
:10007000A72E2B2F442F9E3005A84CCDB2D44EB9BD
:100080003836A9020C50B9918688083CA6AAAA2A3B
:10009000BE000000803F1700130045000000000074
:1000A0000000000000000000000000000000000050
:1000B0000000000000806010101020202020202070
:1000C0002020202020202010101070E007020202C3
:1000D00002020204040404040404040402020202EE
:1000E000020201000000000000000000000000000B
:1000F0000000000000000000000080E0F0F0F0E0F0
:10010000E0E0E0E0E0E0E0E0E0E0E0E0F0F0F0E0BF
:100110008001030303030303070707070707070714
:100120000703030303030301170013004500000046
:1001300000000000000000000000000000000000BF
:10014000000000000000008060101010202020201F
:100150002030383C3C38303030181C1070E007023A
:10016000020202020204040404040404040402025D
:100170000202020201000000000000000000000076
:1001800000000000000000000000000080E0F0F02F
:10019000F0E0E0E0E0E0F0F8FCFCF8F0F0F0F8F07F
:1001A000F0E08001030303030303070707070707C2
:1001B00007070703030303030301170013004500A8
:1001C00000000000F0484838F0808080C0C0C0C007
:1001D000C000000000000000D8806010111D3F3FEB
:1001E0003F3F3F3F3F3F3F3A30303018181271E1F8
:1001F00007020202020202040404040404040404C8
:100200000202020202020100003078783000808091
:1002100080C0C0C08000000000000000000080E03E
:10022000F0F0FCFEFFFFFFFFFFFFFFFFF8F0F0F034
:10023000F8F0F0E080010303030303030707070757
:10024000070707070703030303030301170007005A
:10025000170000003F3F7F7F7F7F007F7F3C7870EB
:100260000F0F0F0F00007C7C7F5F6009097F4949F9
:1002700000007F040810000300030000003C007F22
:10028000402017000700170000001C7F7F7C7C7C4B
:100290007878787878781C5F7F7F7F1C38387C7E10
:1002A0000F047F44544C00180058201800044525C2
:1002B0001D040008087C0201170007001700000059
:1002C0001F1F5F7F7F7F1E1E4F6F7E7E5F5F5F60A1
:1002D0007C7C4F4F4F6F7C070047201F0006024376
:1002E000221E00454540201C00414141201C1700B2
:1002F0000700170000003E7F7F3E0F7F7F7F707CEE
:100300005F7F7F7C3F7F607F7F383838380A7F0A85
:100310000003107B10300445251C000F40201F00F7
:1003200008080808170007001700000047677F7FCC
:100330001F0F1F5F40707F3F0E4E4E7E7E3E0F0FA1
:100340000F000041211D050300074040300F00024F
:100350004242320E0003000300001700070017009E
:1003600000001F5F40707F3F3E3E4F6F7E7E5F5FAD
:100370007F7F7E3F0F0F0F0000074040300F000EC1
:100380000243221E00454525100E00030003000015
:1003900017000700170000004E4E4E4E7E7F1313CD
:1003A0001B1F000078571F377F784D4D6F777E42B7
:1003B0004242427E000300030000007807000778F5
:1003C00000414121100E17000700170000001C5CBF
:1003D0007C7F7F201C5F7F7F7F010F2F2F0F01010C
:1003E0007C7C7F7F600444241F04000445251D0499
:1003F000000300030000003C007F402017001300B2
:1004000045000000000000000000000000000000A7
:1004100000000000F8F8F8F80000000000F0F8FC18
:10042000FCFEFEFEF8F8F8F8F8F8F8FFFFFFFF0012
:1004300000000000000101010101010101010101B1
:1004400001010101010100000000000000000000A6
:10045000000000000000000000F8F8F8F8000000BC
:1004600000003078FCFCFEFE787878787878787830
:100470007F7F7F3F000000000000000000010100BE
:100480000000000000000000000000000000170055
:10049000130045000000000000FCDCFCF4FCFCFC48
:1004A000FCFCFCFCFCFCF4FCDCEC000000000000AC
:1004B000DFDFFF7FFFFFFFFFFDFFFFFFFF7FFFDFAE
:1004C000FF00000000000001010101010101010124
:1004D0000101010101010101000000000000008094
:1004E000F0F0F0F0F87C7C7CF8F0F0F0F0800000A8
:1004F0000000000000070F7F7F7F7FF8F0F0F0F82A
:100500007F7F7F7F0F0700000000000000000000D9
:1005100000000001010100000000000000000000D8
:10052000170013004500000000FEFFFF7757770714
:1005300007775777FFFFFF4E4E9E3EFCC00000003E
:10054000FFFFFF0E4A4E40454A4904FFFFFF08885F
:1005500007007FFF80000007070707070707070757
:100560000707070707020107020202010000FEFF5A
:10057000FFFFFFFFFFFFFFFFFFFFFFFEFCFAF2E4BC
:10058000C000000000FFFFFFFFFFFFFFFFFFFFFFB6
:10059000FFFFFFFFFFFFFFFF8000000003070707CB
:1005A00007070707070707070703030101030303FB
:1005B000010017001300450000000080808080804B
:1005C00080FC84B4FCFCB48484B4FCFCB40404FC5F
:1005D0000000FF40A050B060C060B058AC54AC58B0
:1005E000B0FFFF3F3F383F00000303020302030256
:1005F00003020302030203020303000000000000E1
:10060000808080808080FCFCFCFCFCFCFCFCFCFC12
:10061000FCFCFCFCFC0000FFFFFFFFFFFFFFFFFFF7
:10062000FFFFFFFFFFFFFF0F0F0F0F0F0000030380
:100630000303030303030303030303030303000090
:1006400000000000170013004500000000F00C023D
:10065000828202FA8A8A8A8A8A8A8AFA82820202D2
:100660000EFC0000FFC6061F1F8646C0C0C0C0C0EB
:10067000C0C0C383031C1CDC3F0000000301020157
:100680000002010101010101010102010201000357
:100690000000F0FCFEFEFEFEFEFEFEFEFEFEFEFE86
:1006A000FEFEFEFEFEFCF000003FFFFFFFFFFF7FAF
:1006B0007F7F7F7F7F7F7F7FFFFFFFFFFF3F000008
:1006C0000000010301000000000000000000000025
:1006D00001030100000017001300450000000000A6
:1006E0000000000000000000000000000000C03C0E
:1006F000020202867CE0F0F0F8F8F8FCFCFCFCEA70
:10070000E414524A292824141209040203030203A0
:1007100003030303030301000200000000000000C4
:1007200000000000000000000000000000000000C9
:10073000000000C0FCFEFEFEFC7820B0F0F8F8F8E7
:10074000FCFCFCFCF8FC1C1E0E0F0F07070301004D
:10075000000101020303030303030301000000007F
:10076000000000000000000017001300450000001A
:100770000000F0484838F0808080C0C0C0C0F0C899
:10078000840202864C30F8806010111D3F3F3F3FCD
:100790003F3F3F3F3F3F3F3F3F1D1C1271E107027C
:1007A0000202020202040404040404040404020217
:1007B000020202020100003078783000808080C0A0
:1007C000C0C080B0F8FCFEFEFC78300080E0F0F0A5
:1007D000FCFEFFFFFFFFFFFFFFFFFFFFFFFFFDF03E
:1007E000F0E080010303030303030707070707077C
:1007F0000707070303030303030117001300450062
:100800000000000000FCFEFFFFFFFFFFFEFEFEFCFD
:10081000FCF8E0C08000000000000000E3EFEFFF04
:10082000FFFFFFFFFFFFFFFFFFFFFFFFFE000000D6
:10083000000000070707070707070707070707075D
:1008400007070707000000000000FCFEFFFFFFFF96
:10085000FEFEFEFCFCF8E0C080000000000000008E
:1008600000E0E3E7FFFFFFFFFFFFFFFFFFFFFFFFEA
:10087000FE7C0000000000000000010103030303F0
:100880000707070707070301000000001B001C0003
:100890006C000000000000000000FE01C121117189
:1008A0000D037B1511214181FFFE000000000000B7
:1008B0000000000000FF0000F9263AC303FA263AC0
:1008C000C40502FFFF0000000000000000F008085F
:1008D0000F080808097D8484847D090808080F0F23
:1008E00008F8F00000000E090909090909090909B9
:1008F00009090909090909090909090909090F006B
:10090000000000000000FEFFFFFFFFFFFFFFFFFFF2
:10091000FFFFFFFFFE0000000000000000000000DD
:1009200000FFFFFFFFFFFFFFFFFFFFFFFFFFFFFFD6
:10093000000000000000000000F0F8F8FFFFFFFFDB
:10094000FFFFFFFFFFFFFFFFFFFFFFF8F8F00000D2
:1009500000000E0F0F0F0F0F0F0F0F0F0F0F0F0FC6
:100960000F0F0F0F0F0F0F0F0F0F0E001B001C00AC
:100970006C0000000000000000804020A02020AC9F
:1009800012011D23202020204040408080808000D4
:1009900000003E2140C282F1A8A8899262000000B6
:1009A00000000000000040A42A99F884020202031B
:1009B000030204F8070000010F3141C7299151518A
:1009C00021414080FE0100010A0A0A0A0A090000CA
:1009D00000000008080808090A04080808080403B9
:1009E000000000000080C0E0E0E0E0ECFEFFFFE27D
:1009F000E0E0E0E0C0C0C0808080000000003E3F3A
:100A00007FFFFFFFFFFFFFFFFFFFFFFFFFFFFFFF76
:100A1000FFFFFFBF3B1178FCFEFEFEFFFFFFFFFF65
:100A2000070000010F3F7FFFF9F1F1F1E1C1C08044
:100A300000000001030303030301000000000000A5
:100A40000000000103070F0F0F0F07031B001C001E
:100A50006C00000000000080402010D01010CC027C
:100A60000209151513101010202020404040C0002E
:100A7000000F102021A17854D4444971C0408080D7
:100A8000808080808080A052154CC030080C0A12F3
:100A900015E8100F000000000FF020A1A6B840805C
:100AA00000000000000D0A040404020A090000000E
:100AB0000000000000010A040808080909060800EF
:100AC00000000080C0E0F0F0F0F0FCFEFEFFF7F761
:100AD000F2F0F0F0E0E0E0C0C0C08000000F1F3F87
:100AE0003FBFFFFFFF7F7F7FFFFFFFFFFFFFFFFF96
:100AF000FFFFFF5F1D08C0F0F8FCFEFEFFFF1F0FA9
:100B0000000000000FFFFFFFFEF8C08000000000A3
:100B100000010307070703030100000000000000B5
:100B2000000103070F0F0F0F0F0600001B001C0032
:100B30006C000000000000000080C0A02020202CDD
:100B400092819D2320202020404040808080800092
:100B500000003E2140C28AB1D0D0D1AA12000000CC
:100B600000000000000040A42A99F8840202020359
:100B7000030204F8070101010F3141C729915151C6
:100B800021414080FE0100010A0A0A0A0A09000008
:100B900000000008080808090A04080808080403F7
:100BA000000000000080C0E0E0E0E0ECFEFFFFE2BB
:100BB000E0E0E0E0C0C0C0808080000000003E3F78
:100BC0007FFFFFFFFFFFFFFFFFFFFFFFFFFFFFFFB5
:100BD000FFFFFFBF3B1178FCFEFEFEFFFFFFFFFFA4
:100BE000070000010F3F7FFFF9F1F1F1E1C1C08083
:100BF00000000001030303030301000000000000E4
:100C00000000000103070F0F0F0F07031B001C005C
:100C10006C000000000000804020505090100C82BA
:100C20004249551513101010202020404040C000AC
:100C3000000F102020A14558E8686855C940808001
:100C4000808080808080A052154CC030080C0A1231
:100C500015E8100F000000000FF020A1A6B840809A
:100C600000000000000D0A040404020A090000004C
:100C70000000000000010A0408080809090608002D
:100C800000000080C0E0F0F0F0F0FCFEFEFFF7F79F
:100C9000F2F0F0F0E0E0E0C0C0C08000000F1F3FC5
:100CA0003FBFFFFFFF7F7F7FFFFFFFFFFFFFFFFFD4
:100CB000FFFFFF5F1D08C0F0F8FCFEFEFFFF1F0FE7
:100CC000000000000FFFFFFFFEF8C08000000000E2
:100CD00000010307070703030100000000000000F4
:100CE000000103070F0F0F0F0F0600001B001C0071
:100CF0006C0000000000000000804020A020202C9C
:100D000092011D23202020204040408080808000D0
:100D100000003E2140C088939090908B100000000E
:100D200000000000000040A42A99F8840202020397
:100D3000030204F8070000010F3141C72991515106
:100D400021414080FE0100010A0A0A0A0A09000046
:100D500000000008080808090A0408080808040335
:100D6000000000000080C0E0E0E0E0ECFEFFFFE2F9
:100D7000E0E0E0E0C0C0C0808080000000003E3FB6
:100D80007FFFFFFFFFFFFFFFFFFFFFFFFFFFFFFFF3
:100D9000FFFFFFBF3B1178FCFEFEFEFFFFFFFFFFE2
:100DA000070000010F3F7FFFF9F1F1F1E1C1C080C1
:100DB0000000000103030303030100000000000022
:100DC0000000000103070F0F0F0F07031B001C009B
:100DD0006C00000000000080402010D010100CC2F9
:100DE0000209151513101010202020404040C000AB
:100DF000000F102020A44948C8484548C0408080C2
:100E0000808080808080A052154CC030080C0A126F
:100E100015E8100F000000000FF020A1A6B84080D8
:100E200000000000000D0A040404020A090000008A
:100E30000000000000010A0408080809090608006B
:100E400000000080C0E0F0F0F0F0FCFEFEFFF7F7DD
:100E5000F2F0F0F0E0E0E0C0C0C08000000F1F3F03
:100E60003FBFFFFFFF7F7F7FFFFFFFFFFFFFFFFF12
:100E7000FFFFFF5F1D08C0F0F8FCFEFEFFFF1F0F25
:100E8000000000000FFFFFFFFEF8C0800000000020
:100E90000001030707070303010000000000000032
:100EA000000103070F0F0F0F0F0600001B001C00AF
:100EB0006C000000FEFEFEFEFEFEFEFE7E7E7E7EDE
:100EC00026023A7EFEFEFEFEFEFEFEFEFEFEFEFF59
:100ED000EFE7C30100848402000000020484800064
:100EE000000000018183E3E7EFFFFFFFFFFFFFFF4B
:100EF000FFFFFFFEFEFEFEFFFFFFFFFEFEFEFFFF09
:100F0000FFFFFFFFFF0303030303030303030303C5
:100F100003030303030303030303030303030303A1
:100F20000000000000808080C0C0C0D8FCFEFEC46D
:100F3000808080800000000000000010383CFEFF30
:100F4000FFFFFFFFFFFFFFFFFFFFFFFFFFFFFFFFB1
:100F5000FFFE7E3C3810000000000F71800F31C38F
:100F6000031FE3010FF001031FE301000000000075
:100F7000000000000000000300000100000100006C
:100F80000102000000000000000000001B001C0027
:100F90006C000000FEFEFE0E8E4E4E4E2E2E1E06E5
:100FA00006122A2A464E4E4E8E8E0E0E0EFEFEFF64
:100FB000D7D3A140C0C2C281000080C1C2C280009C
:100FC00000008040414121E2A79FFFFFFFFFFFFF9C
:100FD000FFFFFFFDFDFCFFFFFFFFFDFAFFFCFEFF33
:100FE000FFFFFFFFFF0101010101010101010101FB
:100FF00001010101010101010101010101010101E1
:101000000000000080C0C0C0E0E0F8FCFCFEEEEE96
:10101000C4C0C0C080800000000000081C1E3F7FCC
:10102000FF7F7FFFFFFFFFFF7F7FFFFFFFFFFF7F50
:101030007F7F3F3E3C1800000000F00F00E01F01E2
:1010400001F00F80700F01738F000000000000009E
:10105000000000000000000000010000010001008D
:101060000000000100000000000000001B001C0048
:101070006C000000FEFEFEFEFEFEFEFE7E7E7E7E1C
:1010800026023A7EFEFEFEFEFEFEFEFEFEFEFEFF97
:10109000EFE7C30100828A0400040A020080800096
:1010A000000000018183E3E7EFFFFFFFFFFFFFFF89
:1010B000FFFFFFFEFEFEFEFFFFFFFFFEFEFEFFFF47
:1010C000FFFFFFFFFF030303030303030303030304
:1010D00003030303030303030303030303030303E0
:1010E0000000000000808080C0C0C0D8FCFEFEC4AC
:1010F000808080800000000000000010383CFEFF6F
:10110000FFFFFFFFFFFFFFFFFFFFFFFFFFFFFFFFEF
:10111000FFFE7E3C3810000000000F71800F31C3CD
:10112000031FE3010FF001031FE3010000000000B3
:1011300000000000000000030000010000010000AA
:101140000102000000000000000000001B001C0065
:101150006C000000FEFEFE0E8E4E4E4E2E2E1E0623
:1011600006122A2A464E4E4E8E8E0E0E0EFEFEFFA2
:10117000D7D3A140C0C1C582000285C1C0C08000D4
:1011800000008040414121E2A79FFFFFFFFFFFFFDA
:10119000FFFFFFFDFDFCFFFFFFFFFDFAFFFCFEFF71
:1011A000FFFFFFFFFF010101010101010101010139
:1011B000010101010101010101010101010101011F
:1011C0000000000080C0C0C0E0E0F8FCFCFEEEEED5
:1011D000C4C0C0C080800000000000081C1E3F7F0B
:1011E000FF7F7FFFFFFFFFFF7F7FFFFFFFFFFF7F8F
:1011F0007F7F3F3E3C1800000000F00F00E01F0121
:1012000001F00F80700F01738F00000000000000DC
:1012100000000000000000000001000001000100CB
:101220000000000100000000000000001B001C0086
:101230006C000000FEFEFEFEFEFEFEFE7E7E7E7E5A
:1012400026023A7EFEFEFEFEFEFEFEFEFEFEFEFFD5
:10125000EFE7C301008080070000000700808000E6
:10126000000000018183E3E7EFFFFFFFFFFFFFFFC7
:10127000FFFFFFFEFEFEFEFFFFFFFFFEFEFEFFFF85
:10128000FFFFFFFFFF030303030303030303030342
:10129000030303030303030303030303030303031E
:1012A0000000000000808080C0C0C0D8FCFEFEC4EA
:1012B000808080800000000000000010383CFEFFAD
:1012C000FFFFFFFFFFFFFFFFFFFFFFFFFFFFFFFF2E
:1012D000FFFE7E3C3810000000000F71800F31C30C
:1012E000031FE3010FF001031FE3010000000000F2
:1012F00000000000000000030000010000010000E9
:101300000102000000000000000000001B001C00A3
:101310006C000000FEFEFE0E8E4E4E4EAE2E1E06E1
:1013200086122A2A464E4E4E8E8E0E0E0EFEFEFF60
:10133000D7D3A140C0C0C083000080C3C0C080001C
:1013400000008040414121E2A79FFFFFFFFFFFFF18
:10135000FFFFFFFDFDFCFFFFFFFFFDFAFFFCFEFFAF
:10136000FFFFFFFFFF010101010101010101010177
:10137000010101010101010101010101010101015D
:101380000000000080C0C0C0E0E0F8FCFCFEEEEE13
:10139000C4C0C0C080800000000000081C1E3F7F49
:1013A000FF7F7FFFFFFFFFFF7F7FFFFFFFFFFF7FCD
:1013B0007F7F3F3E3C1800000000F00F00E01F015F
:1013C00001F00F80700F01738F000000000000001B
:1013D000000000000000000000010000010001000A
:1013E0000000000100000000000000001B001C00C5
:1013F0006C0000000000C0C0C0C0C0C0C0C0C0C001
:10140000C0C0C0C0C0C0C0C0C0C0C0C0C0C000005C
:1014100000FF9F27170F070F0F0F0F070F1F2F1F1B
:101420001F0F0F3F4F7F4F7FFF000000FFFF04089B
:1014300010101020C00000040A0581402011111274
:101440000804F3FC00000007070404040406050474
:10145000040404040405020404040404040707004B
:101460000000000000000080000000C00000C0007C
:101470000000000000000000000000000060F0E03C
:10148000F0FEFDF8F8FFF8FCFEF1E0FCF3F8F8F0F0
:10149000C6F8C0C0800000000003070F1F1F1F3FD9
:1014A000FFFFFFFFFFFFFF7F3F1F1F1F0F0703000F
:1014B0000000000000000000000207070707070700
:1014C0000707020000000000000000001B001C00D5
:1014D0006C00000000000000008080000000C0C020
:1014E0000000C0C00000000000000000000000007C
:1014F00000F0C8180F0701030607070702878F1FB0
:1015000008089CAF4F2090503000000000070204F4
:101510000808081010E002050200C02010080809A1
:101520002619060100000000000000000006050565
:10153000040404040405020400000000000000008C
:1015400000000000008000000000C0000000C0009B
:101550000000000000000000000000000030F8F073
:10156000F9FEFFFEFCFCFFFCFEFCFFF0F8F8FCE3DC
:10157000C0E0F07020000000000103070F0F0F1FF4
:101580001FFFFFFFFFFFFF3F1F0F0F0F07010000AF
:10159000000000000000000000020707070707071F
:1015A0000707020000000000000000001B001C00F4
:1015B0006C0000000000C0C0C0C0C0C0C0C0C0C03F
:1015C000C0C0C0C0C0C0C0C0C0C0C0C0C0C000009B
:1015D00000FF9F27170F070F0F0F0F070F1F2F1F5A
:1015E0001F0F0F3F4F7F4F7FFF000000FFFF0408DA
:1015F00010101020C00000000002814220121112C1
:101600000804F3FC000000070704040404060504B2
:101610000404040404050204040404040407070089
:101620000000000000000080000000C00000C000BA
:101630000000000000000000000000000060F0E07A
:10164000F0FEFDF8F8FFF8FCFEF1E0FCF3F8F8F02E
:10165000C6F8C0C0800000000003070F1F1F1F3F17
:10166000FFFFFFFFFFFFFF7F3F1F1F1F0F0703004D
:10167000000000000000000000020707070707073E
:101680000707020000000000000000001B001C0013
:101690006C00000000000000008080000000C0C05E
:1016A0000000C0C0000000000000000000000000BA
:1016B00000F0C8180F0701030607070702078F1F6E
:1016C00008089C2F4F2090503000000000070204B3
:1016D0000808081010E000000100C12011080908E6
:1016E00026190601000000000000000000060505A4
:1016F00004040404040502040000000000000000CB
:1017000000000000008000000000C0000000C000D9
:101710000000000000000000000000000030F8F0B1
:10172000F9FEFFFEFCFCFFFCFEFCFFF0F8F8FCE31A
:10173000C0E0F07020000000000103070F0F0F1F32
:101740001FFFFFFFFFFFFF3F1F0F0F0F07010000ED
:10175000000000000000000000020707070707075D
:101760000707020000000000000000001B001C0032
:101770006C0000000000C0C0C0C0C0C0C0C0C0C07D
:10178000C0C0C0C0C0C0C0C0C0C0C0C0C0C00000D9
:1017900000FF9F27170F070F0F0F0F070F1F2F1F98
:1017A0001F0F0F3F4F7F4F7FFF000000FFFF040818
:1017B00010101020C00000000007804020171010FB
:1017C0000804F3FC000000070704040404060504F1
:1017D00004040404040502040404040404070700C8
:1017E0000000000000000080000000C00000C000F9
:1017F0000000000000000000000000000060F0E0B9
:10180000F0FEFDF8F8FFF8FCFEF1E0FCF3F8F8F06C
:10181000C6F8C0C0800000000003070F1F1F1F3F55
:10182000FFFFFFFFFFFFFF7F3F1F1F1F0F0703008B
:10183000000000000000000000020707070707077C
:101840000707020000000000000000001B001C0051
:101850006C00000000000000008080000000C0C09C
:101860000000C0C0000000000000000000000000F8
:1018700000F0C8180F0701030607070702078F1FAC
:1018800008089C2F4F2090503000000000070204F1
:101890000808081010E000000003C020100B080822
:1018A00026190601000000000000000000060505E2
:1018B0000404040404050204000000000000000009
:1018C00000000000008000000000C0000000C00018
:1018D0000000000000000000000000000030F8F0F0
:1018E000F9FEFFFEFCFCFFFCFEFCFFF0F8F8FCE359
:1018F000C0E0F07020000000000103070F0F0F1F71
:101900001FFFFFFFFFFFFF3F1F0F0F0F070100002B
:10191000000000000000000000020707070707079B
:101920000707020000000000000000004A00070056
:101930004A00000011110E152145627D7F7F5F4F27
:101940004F7F7F7F5F2F000000000000000000003D
:101950000000000000000000000000000000000087
:101960000000000000000000000000007F7F7F7585
:101970006145637F7F7F5F4F4F7F7F7F5F7F010187
:101980000E1F3F7F7E7D7978787878787878702020
:101990000000000000000000000000000000000047
:1019A0000000000000000000000000000000000037
:1019B00000000000000001010E1F3F7F7E7D79784E
:1019C00078787878787870204A0007004A0000001C
:1019D0000000000000000000000000000000000007
:1019E00000000000000000000000000000000000F7
:1019F00000000000000000000000000000000000E7
:101A000000000000000000007F7F7F756145637F5C
:101A10007F7F5F4F4F7F7F7F5F7F00000000000070
:101A200000000000000000000000000000000000B6
:101A300000000000000000000000000000000000A6
:101A40000000000000000000000000000000000096
:101A5000000001010E1F3F7F7E7D797878787878CD
:101A6000787870204A0007004A000000000000005B
:101A70000000000000000000000000000000000066
:101A80000000000000000000000000000000000056
:101A90000000000000000000000000000000000046
:101AA0000000000000000000000000000000000036
:101AB0000000000000000000000000000000000026
:101AC0000000000000000000000000000000000016
:101AD0000000000000000000000000000000000006
:101AE00000000000000000000000000000000000F6
:101AF00000000000000000000000000000000000E6
:101B0000170005001700000006090F1E0F0F060042
:101B100006090F1E0F0F060006090F1E0F0F0606FF
:101B20000F0F1E0F0F0600060F0F1E0F0F060006E9
:101B30000F0F1E0F0F0617000500170000001F1FD4
:101B40001F1E0F0F060006090F1E0F0F06000609C5
:101B50000F1E0F0F060000001E0F0F0600060F0FCE
:101B60001E0F0F0600060F0F1E0F0F0617000500B1
:101B7000170000001F1F1F1F1F1F1F1F06090F1E1A
:101B80000F0F060006090F1E0F0F060000000000D1
:101B9000000000060F0F1E0F0F0600060F0F1E0F8E
:101BA0000F0617000500170000001F1F1F1F1F1F33
:101BB0001F1F1F1F1F1E0F0F060006090F1E0F0FEE
:101BC0000600000000000000000000001E0F0F06CD
:101BD00000060F0F1E0F0F0617000500170000006C
:101BE0001F1F1F1F1F1F1F1F1F1F1F1F1F1F1F1F05
:101BF00006090F1E0F0F0600000000000000000085
:101C000000000000000000060F0F1E0F0F06170057
:101C10000500170000001F1F1F1F1F1F1F1F1F1F72
:101C20001F1F1F1F1F1F1F1F1F1E0F0F060000005B
:101C300000000000000000000000000000000000A4
:101C40001E0F0F061700050017000000000000001F
:101C50000000000000000000000000000000000084
:101C60000000000000000000000000000000000074
:101C70000000000000000000000014000400140038
:101C8000000006060F0F06060006060F0F060600E8
:101C900006060F0F060606060F0F06060006060FBD
:101CA0000F06060006060F0F0606140004001400B7
:101CB000000006060F0F06060006060F0F060600B8
:101CC00006060F0F0F0F06060F0F06060006060F7B
:101CD0000F06060006060F000000140004001400A2
:101CE000000006060F0F06060006060F0F06060F79
:101CF0000F0F0F0F0F0F06060F0F06060006060F39
:101D00000F0606000000000000001400040014008C
:101D1000000006060F0F06060006060F0F0F0F0F36
:101D20000F0F0F0F0F0F06060F0F06060006060F08
:101D30000000000000000000000014000400140077
:101D4000000006060F0F06060F0F0F0F0F0F0F0FE5
:101D50000F0F0F0F0F0F06060F0F060600000000F3
:101D60000000000000000000000014000400140047
:101D7000000006060F0F0F0F0F0F0F0F0F0F0F0FA3
:101D80000F0F0F0F0F0F06060F00000000000000DE
:101D90000000000000000000000014000400140017
:101DA000000006060F0F0F0F0F0F0F0F0F0F0F0F73
:101DB0000F0F0F0F0F0F00000000000000000000C9
:101DC000000000000000000000003C001E00F000C9
:101DD000000000C0C0E0E0C0000080800000C0C083
:101DE0008000C0E0E0C0E0E080E0E0E080C0C0C093
:101DF000C0E0E000E0A0E0E0E08080C0E080C0E083
:101E0000C000E0C0C0C0C0E080808080C000000989
:101E10000FCF8F8F8F8F870F0E0C01838F0F8FCF78
:101E20008F0F7F3F333B4B070F018F0F0FCF0F0EED
:101E30000F8F0F4F0F8F0F4F0F0FCF8303430F8F56
:101E40008F8F4F0F8B8B8B0F8F0000313F3F3F3FAA
:101E50003F3F3F3F3E303F3F3F3F3F3F3B06181035
:101E60000001020C011D0301120C010600070821EC
:101E7000110F013038383F3A3F060E2F2F1F3E001A
:101E80003F3F3F383F00000000000000000000001E
:101E90000000000000000000000000000000000042
:101EA0000000000000000000000000000000000032
:101EB0000000000000000000000000000000000022
:101EC0000000004040E04000000080000000408032
:101ED000000040E04000204080A0A080004040C0C2
:101EE00040E0400020A0E020008080C08080C00052
:101EF000C00000C04040C00080808000C0000008DA
:101F000007808589898001060400008003048A0F08
:101F1000020109060008080403008B0A0783000277
:101F20000F8A0C05028E000F000E8000000003884F
:101F3000890A0700880888040300000000001824AC
:101F4000222106000610293F090424190006181052
:101F50000001020C011D0301120C010600070821FB
:101F6000110F011028301F122200022222120C0031
:101F70002F002F0000000000000000000000000003
:101F80000000000000000000000000000000000051
:101F90000000000000000000000000000000000041
:101FA0000000000000000000000000000000000031
:101FB00000003C001E00F000000080E0E0C0E0E017
:101FC0008080E0E0C0C0000000E0E0808080E0E0D1
:101FD000E080E0E0E0E0E0E0E0C0C0C0C08080C0C1
:101FE000C080A0E0E0C0C0C080C0C0C0C0C0C0C051
:101FF000C0C0C00000C0031F8F8F8F8FCF8F7F8F17
:102000001F191FCF8C0F0F8F8FD78B1B1F0F199D81
:102010008A8F1F011F1F0FCF870F8F8F8F8FCF8149
:10202000799F2F1FE1E1B9CDBF2F4737E707A708F9
:102030003C1F0003063E3E3E2F3F1E1E3C3C303FF1
:102040003F3E003B3F3F3F3F3F3F3837372F2F3B1F
:102050003E3E3E3F3F3F063E3E3E2F3F1E1E0E3F52
:102060003F3F3F3F3F3F21103F013F10080000002E
:102070000000000000000000000000000000000060
:102080000000000000000000000000000000000050
:102090000000000000000000000000000000000040
:1020A0000000000000000000000080E04040E04030
:1020B000008060000000000000E080800080A0A0A0
:1020C0008000404040C00040404040C0008080C090
:1020D00080800040404040C000404040C000C040C0
:1020E000C000C00000C00007888A89808E050E08E5
:1020F0000600048A0C07048880800808040308840A
:10210000820D0000020C0281000E808F808E800004
:102110000807020180000884030001018100810892
:102120000403000000182422210600061028301F96
:102130001222001824241F043F080010202121230C
:10214000003816392018001824222106000600192C
:102150003F1229301F2000002F002F000000000038
:10216000000000000000000000000000000000006F
:10217000000000000000000000000000000000005F
:10218000000000000000000000000000000000004F
:10219000000000000000000000000700050007002C
:1021A000000006090F1E0F0F06060F0F1E0F0F0669
:1021B0000A000D0014000000003EC1010102020CE3
:1021C00030C00305080810101010100F003EFFFF6C
:1021D000FFFEFEFCF0C003070F0F1F1F1F1F1F0F86
:1021E0001200130036000000F8040201F9FD8D8D85
:1021F000FDFD8D8DFDF9010204F83F4080006C6FFC
:102200003B391313393B6F6C0080403F02050404D7
:102210000202010101010101010101000000F8FCBD
:10222000FEFFFFFFFFFFFFFFFFFFFFFFFFFEFCF8CA
:102230003F7FFFFFFFFFFFFFFFFFFFFFFFFFFFFFEE
:102240007F3F0207070703030101010101010101AB
:10225000010000001200130036000000FC0403011E
:102260007D41FDC17D01FDFDF971010204F8FF40D2
:10227000800000007F7F00007F7F00000080403FE3
:102280000100040505050505050505050606040408
:102290000502F8FCFEFFFFFFFFFFFFFFFFFFFFFF50
:1022A000FFFEFCF83F7FFFFFFFFFFFFFFFFFFFFF89
:1022B000FFFFFFFF7F3F000000010101010101015D
:1022C00001030303070707020608205F0000000060
:1022D00000000000002F00000000070007000014AD
:1022E0007F147F1400242A7F2A12002313086462BB
:1022F00000364955225000000503000000001C2252
:102300004100000041221C000014083E081400088F
:10231000083E0808000000A060000008080808083F
:10232000000060600000002010080402003E5149D7
:10233000453E0000427F4000004261514946002175
:1023400041454B31001814127F100027454545398F
:10235000003C4A49493000017109050300364949EA
:10236000493600064949291E0000363600000000A3
:1023700056360000000814224100001414141414EE
:102380000000412214080002015109060032495997
:10239000513E007C1211127C007F49494936003EB3
:1023A00041414122007F4141221C007F494949416E
:1023B000007F09090901003E4149497A007F080868
:1023C000087F0000417F4100002040413F01007F25
:1023D00008142241007F40404040007F020C027FF1
:1023E000007F0408107F003E4141413E007F090903
:1023F0000906003E4151215E007F09192946004629
:10240000494949310001017F0101003F4040403FFF
:10241000001F2040201F003F4038403F0063140849
:102420001463000708700807006151494543000024
:102430007F414100AA55AA55AA55000041417F009D
:102440000004020102040040404040400000030537
:102450000000002054545478007F48444438003829
:102460004444442000384444487F003854545418AD
:1024700000087E0901020018A4A4A47C007F0804BF
:1024800004780000447D4000004080847D00007F8F
:10249000102844000000417F4000007C04180478AC
:1024A000007C0804047800384444443800FC2424A8
:1024B00024180018242418FC007C08040408004890
:1024C0005454542000043F444020003C4040207CB1
:1024D000001C2040201C003C4030403C00442810A0
:1024E0002844001CA0A0A07C004464544C4400007C
:1024F000107C8200000000FF00000000827C1000C1
:10250000000006090906000000002300260029003B
:1025100000000000240027002A000000000800023C
:102520000100000304070000000000000000020199
:102530000204081020408001020408102001020457
:1025400008102000000000250028002B00040404CF
:10255000040404040402020202020203030303034C
:102560000300E33011241FBECFEFD8E0DEBFCDBFA4
:1025700012E0A0E0B1E0E2EAFDE602C005900D92B3
:10258000A637B107D9F725E0A6E7B2E001C01D9252
:10259000A438B207E1F712E1C2EBD2E104C02197FF
:1025A000FE010E94F134C13BD107C9F70E941C22F1
:1025B0000C94CF360C940000CF92DF92EF92FF92F2
:1025C0000F931F93CF93DF936C017A018B01C0E0CF
:1025D000D0E0CE15DF0589F0D8016D918D01D601CF
:1025E000ED91FC910190F081E02DC6010995892BB8
:1025F00011F47E0102C02196ECCFC701DF91CF918B
:102600001F910F91FF90EF90DF90CF900895FC0104
:10261000918D828D981761F0828DDF01A80FB11D19
:102620005D968C91928D9F5F9F73928F90E008953D
:102630008FEF9FEF0895FC01918D828D981731F0F7
:10264000828DE80FF11D858D90E008958FEF9FEF4B
:102650000895FC01918D228D892F90E0805C9F4F21
:10266000821B91098F73992708958CEB92E00E9449
:10267000291321E0892B09F420E0822F0895FC0121
:10268000848DDF01A80FB11DA35ABF4F2C91848DFB
:1026900090E001968F739927848FA689B7892C9330
:1026A000A089B1898C9180648C93938D848D9813CB
:1026B00006C00288F389E02D80818F7D8083089594
:1026C000EF92FF920F931F93CF93DF93EC0181E082
:1026D000888F9B8D8C8D981305C0E889F98980813E
:1026E00085FD24C0F62E0B8D10E00F5F1F4F0F737A
:1026F0001127E02E8C8DE8120CC00FB607FCFACF24
:10270000E889F989808185FFF5CFCE010E943F13CA
:10271000F1CF8B8DFE01E80FF11DE35AFF4FF082E0
:102720000B8FEA89FB898081806207C0EE89FF896F
:102730006083E889F98980818064808381E090E00A
:10274000DF91CF911F910F91FF90EF900895CF935C
:10275000DF93EC01888D8823C9F0EA89FB898081A9
:1027600085FD05C0A889B9898C9186FD0FC00FB67B
:1027700007FCF5CF808185FFF2CFA889B9898C91BC
:1027800085FFEDCFCE010E943F13E7CFDF91CF91C0
:10279000089580E090E0892B29F00E943513811183
:1027A0000C9400000895833081F028F4813099F072
:1027B0008230A1F008958730A9F08830B9F08430D4
:1027C000D1F4809180008F7D03C0809180008F774D
:1027D00080938000089584B58F7702C084B58F7D83
:1027E00084BD08958091B0008F7703C08091B000C0
:1027F0008F7D8093B00008953FB7F8948091B10227
:102800009091B202A091B302B091B40226B5A89BF8
:1028100005C02F3F19F00196A11DB11D3FBFBA2F72
:10282000A92F982F8827820F911DA11DB11DBC01D2
:10283000CD0142E0660F771F881F991F4A95D1F797
:1028400008956435710500F540335105E8F49A01A7
:10285000E3E036952795EA95E1F7A4E5A29FF0011C
:10286000A39FF00D11246E0F7F1FFC01E60FF71FD1
:102870004770552781E090E001C0880F4A95EAF73C
:102880008095908D8923808F089564357105F8F4C3
:1028900040335105E0F49A01E3E036952795EA9537
:1028A000E1F7A4E5A29FF001A39FF00D11246E0FA4
:1028B0007F1FFC01E60FF71F4770552781E090E06E
:1028C00001C0880F4A95EAF7908D892B808F089573
:1028D000FF920F931F93CF93DF938A01FB01D08167
:1028E0009C013327F901E65EFA4D8491F901E15D1F
:1028F000FA4DF490F901E35BFA4DC491CC23A1F0B9
:1029000081110E94D313EC2FF0E0EE0FFF1FEA5F5E
:10291000FA4DA591B491EC91EF2191E080E009F49A
:1029200090E0292F382F02C020E030E0F1E02F277F
:10293000822F81700130110539F00230110549F004
:10294000012B49F4D82F08C0232B29F081E0D82788
:1029500003C0232B09F0D0E08D2FDF91CF911F9181
:102960000F91FF9008950E94CA36CF93DF9300D055
:1029700000D0CDB7DEB7611571058105910579F0FD
:102980009B01AC0169833A834B835C830E94DE31F7
:1029900029813A814B815C810E94FD3203C060E055
:1029A00070E0CB010F900F900F900F90DF91CF91BF
:1029B0000895611571058105910511F00C94E331BD
:1029C00008951F920F920FB60F9211242F933F93E9
:1029D0004F935F936F937F938F939F93AF93BF9327
:1029E000EF93FF938CEB92E00E943F13FF91EF91E6
:1029F000BF91AF919F918F917F916F915F914F9117
:102A00003F912F910F900FBE0F901F9018951F921E
:102A10000F920FB60F9211242F938F939F93EF93E2
:102A2000FF93E091CC02F091CD028081E091D2023F
:102A3000F091D30282FD12C090818091D5028F5F08
:102A40008F732091D602821751F0E091D502F0E009
:102A5000E454FD4F958F8093D50201C08081FF9192
:102A6000EF919F918F912F910F900FBE0F901F901C
:102A700018951F93CF93DF93282F30E0F901E65E7E
:102A8000FA4D8491F901E15DFA4DD491F901E35BCE
:102A9000FA4DC491CC23C9F0162F81110E94D31393
:102AA000EC2FF0E0EE0FFF1FED5BFA4DA591B49116
:102AB0008FB7F894111105C09C91ED2FE095E92393
:102AC00002C0EC91ED2BEC938FBFDF91CF911F9162
:102AD00008951F920F920FB60F9211242F933F93D8
:102AE0004F935F936F937F938F939F93AF93BF9316
:102AF000EF93FF938091B8029091B902A091BA022E
:102B0000B091BB02892B8A2B8B2B59F18091B50296
:102B1000E091B602F091B70290818927808380917D
:102B2000B8029091B902A091BA02B091BB021816F6
:102B300019061A061B060CF03DC08091B802909150
:102B4000B902A091BA02B091BB020197A109B109E3
:102B50008093B8029093B902A093BA02B093BB02DB
:102B600029C080910601EEE2F5E2E4919FEF909397
:102B70000601E130B9F098F0E230C9F490917000AC
:102B80009D7F9093700091E09093B0009091B10080
:102B9000987F94609093B1001092B30008C0109297
:102BA0006E0005C090916F009D7F90936F0060E074
:102BB0000E943915FF91EF91BF91AF919F918F9135
:102BC0007F916F915F914F913F912F910F900FBE29
:102BD0000F901F901895CF93DF9390E0FC01E15D7B
:102BE000FA4D2491FC01E35BFA4D8491882361F155
:102BF00090E0880F991FFC01E05FFA4DC591D491D8
:102C0000FC01ED5BFA4DA591B491611109C09FB72C
:102C1000F8948881209582238883EC912E230BC021
:102C2000623061F49FB7F8943881822F80958323B6
:102C30008883EC912E2B2C939FBF06C08FB7F894FE
:102C4000E8812E2B28838FBFDF91CF9108958F923B
:102C50009F92AF92BF92CF92DF92EF92FF926B0161
:102C60007C010E94FC134B015C01C114D104E104FE
:102C7000F104F1F00E94FC13DC01CB0188199909E1
:102C8000AA09BB09883E9340A105B10570F321E074
:102C9000C21AD108E108F10888EE880E83E0981E78
:102CA000A11CB11CC114D104E104F10419F7DDCF5A
:102CB000FF90EF90DF90CF90BF90AF909F908F905C
:102CC00008951F920F920FB60F9211242F933F93E6
:102CD0008F939F93AF93BF938091AD029091AE027B
:102CE000A091AF02B091B0023091AC0223E0230F6B
:102CF0002D3720F40196A11DB11D05C026E8230F34
:102D00000296A11DB11D2093AC028093AD02909359
:102D1000AE02A093AF02B093B0028091B102909145
:102D2000B202A091B302B091B4020196A11DB11DEF
:102D30008093B1029093B202A093B302B093B40215
:102D4000BF91AF919F918F913F912F910F900FBEA7
:102D50000F901F9018951F920F920FB60F9211248B
:102D60000F900FBE0F901F9018952F923F924F9289
:102D70005F926F927F928F929F92AF92BF92CF920B
:102D8000DF92EF92FF920F931F93CF93DF93CDB714
:102D9000DEB72A970FB6F894DEBF0FBECDBF9A8775
:102DA00089873A013E832D83FB0101900020E9F7DA
:102DB0003197AF01461B570B5C834B835FE0651671
:102DC00057E2750679F4DC0153962C91EB81FC8176
:102DD0002E9FC0012F9F900D112424E530E0390172
:102DE000681A790AFEE06F16F7E27F06B9F4A98542
:102DF000BA8553962C91EB81FC812E9FC0012F9FA9
:102E0000900D112424E530E03901681A790A77FE23
:102E100003C0FFEF6F1A7F0A7594679478876F83FA
:102E2000212C312CEB81FC812E163F060CF012C1B7
:102E3000A985BA8553969C915397929D2001939DA5
:102E4000500C1124460C571CEF81F8852191F8870E
:102E5000EF8354968C915497582F577030E05596C5
:102E60004C9151117AC0869586958695241B31091F
:102E7000989FC0011124289FA001299F500D389FC1
:102E8000500D1124CA0104969A838983AD80BE80B7
:102E9000C12CD12CA985BA8554968C91869586959E
:102EA000869590E0C816D9060CF0D0C089809A802B
:102EB0008201A985BA8553968C9190E098012419D6
:102EC0003509281739070CF041C0E12CF12CA985F0
:102ED000BA8553968C9153978C9DF0018D9DF00D82
:102EE0001124E80DF91D51968D919C915297E80F90
:102EF000F91FE491F0E00E2C02C0F595E7950A94D5
:102F0000E2F757968C915797A7014A0D5B1DB801C0
:102F1000E0FF04C0811104C0CD0109C0811105C0CA
:102F200089859A850E94211404C089859A850E940A
:102F30004514BFEFEB1AFB0AE8E0EE16F10439F690
:102F40000F5F1F4FFFEF8F1A9F0AB3CFBFEFCB1A50
:102F5000DB0AE8E0AE0EB11C9DCF241B3109989F1F
:102F6000C001112443E0959587954A95E1F7289F84
:102F70005001299FB00C389FB00C1124B4E0AB0E67
:102F8000B11CA985BA855196ED91FC915297EA0D35
:102F9000FB1DE4910E2F10E0620157E0852E912C6D
:102FA000A985BA8553968C9190E09601241935092C
:102FB000281739070CF04AC0ED80FE80E985FA85B4
:102FC000848990E097014D815E81241B350B281781
:102FD0003907C4F5E985FA852789C801082C02C09C
:102FE000959587950A94E2F7A701B60180FF07C07F
:102FF000211102C0CF010AC089859A8504C0898544
:103000009A85211103C00E94211402C00E94451418
:10301000F1E08F1A910897FE11C04FEFA41AB40A7D
:10302000A985BA855196ED91FC915297EA0DFB1D49
:10303000E4910E2F10E087E0882E912CBFEFEB1A61
:10304000FB0ABCCF5FEFC51AD50AAACFBFEF2B1A78
:103050003B0AE8CE2A960FB6F894DEBF0FBECDBF6E
:10306000DF91CF911F910F91FF90EF90DF90CF9064
:10307000BF90AF909F908F907F906F905F904F9098
:103080003F902F9008950C94EF320C94E73240E07B
:1030900050E069EA72E08EE090E00E94681480934C
:1030A0007C0240E050E068EA72E08FE090E00E942D
:1030B00068148093770240E050E067EA72E080E1B4
:1030C00090E00E9468148093760241E050E069EA43
:1030D00072E08EE090E00E94681480937D0241E0EF
:1030E00050E068EA72E08FE090E00E9468148093FC
:1030F000790241E050E067EA72E080E190E00E94EE
:1031000068148093780242E050E069EA72E08EE051
:1031100090E00E9468148093A60242E050E068EAC2
:1031200072E08FE090E00E9468148093A50242E074
:1031300050E067EA72E080E190E00E9468148093BA
:10314000A40280917C028093A902809177028093EF
:10315000A802809176028093A70208950E944718E2
:1031600020917F0230918002409181025091820231
:103170006091830270918402809185029091860211
:10318000A1E00E947D3520937F023093800240931E
:103190008102509382026093830270938402809331
:1031A000850290938602E1E7F3E0119285E0E9362B
:1031B000F807D9F70895CF93DF93C0E0D0E060E03F
:1031C000CE010E9443182196C11584E0D807B9F7B3
:1031D000E1E7F3E0119285E0E936F807D9F720E15D
:1031E00030E042E150E061E572E089E593E00E9461
:1031F000B51628E130E042E150E06AE572E089E589
:1032000093E00E94B5160E94B11E68EB7BE080E05F
:1032100090E00E9427160C940000DF91CF91089552
:103220008F929F92AF92BF92CF92DF92EF92FF92D6
:103230000F931F93CF93DF938AE590E00E94451888
:10324000D82F8BE590E00E944518C1E0853709F042
:10325000C0E091E0D93509F090E0C9238CE590E019
:103260000E94451821E08B3609F020E0C2238DE54D
:1032700090E00E94451891E0813609F090E0C92362
:103280008EE590E00E94451831E08D3409F030E081
:10329000C3238FE590E00E94451821E0813609F0B4
:1032A00020E0C22380E690E00E94451891E08B3632
:1032B00009F090E0C92381E690E00E944518CC23F4
:1032C00009F4C9C0893609F0C6C010927F02109275
:1032D0008002109281021092820210928302109258
:1032E00084021092850210928602812C912CC2E6F3
:1032F000D0E0CE010E944518E82FF0E0082C02C073
:10330000EE0FFF1F0A94E2F79F2F990F990B9F0171
:10331000492F592F692F792F892FA0907F02B090C4
:103320008002C0908102D0908202E0908302F090EF
:10333000840200918502109186020E9474352093C8
:103340007F02309380024093810250938202609307
:103350008302709384028093850290938602219663
:1033600088E0880E911CCA36D10519F68AE690E0ED
:103370000E944518809304018BE690E00E94451856
:1033800080938A028CE690E00E944518809389021F
:103390008DE690E00E944518809388028EE690E0CA
:1033A0000E944518809387028FE690E00E9445189E
:1033B0008093010180E790E00E944518809300010E
:1033C00081E790E00E9445188093050182E790E034
:1033D0000E944518C82FD0E0DC2FCC27D0937B0269
:1033E000C0937A0283E790E00E944518C80FD11D70
:1033F000D0937B02C0937A0284E790E00E94451844
:1034000080937E02E1E7F3E0119285E0E936F80768
:10341000D9F720E130E042E150E061E572E089E572
:1034200093E00E94B51628E130E042E150E064E606
:1034300072E089E593E00E94B516DF91CF911F916C
:103440000F91FF90EF90DF90CF90BF90AF909F9043
:103450008F900C94B11EDF91CF911F910F91FF902F
:10346000EF90DF90CF90BF90AF909F908F90089596
:10347000EF92FF920F93CF93DF9369E58AE590E097
:103480000E94431865E78BE590E00E9443186BE6C5
:103490008CE590E00E94431861E68DE590E00E9483
:1034A00043186DE48EE590E00E94431861E68FE5D5
:1034B00090E00E9443186BE680E690E00E9443187B
:1034C00069E681E690E00E944318E12CF12CC2E607
:1034D000D0E020917F023091800240918102509192
:1034E00082026091830270918402809185029091A2
:1034F00086020E2D0E945835622FCE010E9443187D
:10350000219688E0E80EF11CCA36D10511F76091CA
:1035100004018AE690E00E94431860918A028BE6DB
:1035200090E00E944318609189028CE690E00E942E
:103530004318609188028DE690E00E9443186091E4
:1035400087028EE690E00E944318609101018FE6A9
:1035500090E00E9443186091000180E790E00E9493
:1035600043186091050181E790E00E944318609143
:103570007B0282E790E00E94431860917A0283E721
:1035800090E00E944318E1E7F3E0119285E0E9360C
:10359000F807D9F760917E0284E790E00E94431813
:1035A00020E130E042E150E061E572E089E593E03E
:1035B0000E94B51628E130E042E150E06CE672E08E
:1035C00089E593E00E94B516DF91CF910F91FF90AE
:1035D000EF900C94B11E60E088E00E94391560E025
:1035E00088E00E94EB150E94381AA89599E288E1BC
:1035F0000FB6F894A895809360000FBE909360007A
:1036000083B7817F8C6083BF83B7816083BF8895D8
:1036100083B78E7F83BF0895813069F444E650E01C
:1036200060E070E080E991E00E94AB1F64E670E02A
:1036300080E090E08AC046E950E060E070E08DE410
:103640009AE00E94AB1F66E970E080E090E00E9483
:10365000271646E950E060E070E089EB99E00E94AF
:10366000AB1F66E970E080E090E00E94271646E913
:1036700050E060E070E08DE299E00E94AB1F66E9E7
:1036800070E080E090E00E94271646E950E060E09C
:1036900070E089EA98E00E94AB1F66E970E080E084
:1036A00090E00E94271646E950E060E070E08DE26D
:1036B00098E00E94AB1F66E970E080E090E00E9415
:1036C000271646E950E060E070E089EA98E00E9441
:1036D000AB1F66E970E080E090E00E94271646E9A3
:1036E00050E060E070E08DE299E00E94AB1F66E977
:1036F00070E080E090E00E94271646E950E060E02C
:1037000070E089EB99E00E94AB1F66E970E080E011
:1037100090E00E94271646E950E060E070E08DE4FA
:103720009AE00E94AB1F66E970E080E090E00E94A2
:10373000271646E950E060E070E08AEE9AE00E94C9
:10374000AB1F66E970E080E090E00C942716FC0166
:103750008085A485B58595E0899FA00DB11D1124B4
:1037600012969C918581981708F4892F90E008950E
:103770002F923F924F925F926F927F928F929F9281
:10378000AF92BF92CF92DF92EF92FF920F931F936F
:10379000CF93DF93CDB7DEB767970FB6F894DEBF50
:1037A0000FBECDBFDC0118968C9118971C96ED9139
:1037B000FC911D9715E0819FE00DF11D1124C08043
:1037C000D180928123818481A12CB12C422F50E0A1
:1037D0005D874C87E92EF12CFF8AEE8A282F30E096
:1037E0003F872E878C859D85A816B9060CF023C1CE
:1037F000C50123E0959587952A95E1F7EE88FF8826
:103800008E9D10018F9D300C9E9D300C11242E85B5
:103810003F85220D331D3A832983410120E030E0AA
:103820004E895F89241735070CF001C11E968C91D3
:103830001E9781110FC0F901E20DF31DEC0DFD1D66
:10384000849149815A81420F531FFA01EC0DFD1DED
:10385000949108C01F96ED91FC915097E80DF91DC9
:10386000808197AD60E070E0492F50E0598748872C
:10387000E82FF0E0FB87EA8711965C90119713968A
:103880004C91139750E012961C91129714968C91BC
:103890001497241735075CF46F5F7F4F683071050C
:1038A00059F72F5F3F4F1FEF811A910AB9CF159635
:1038B0009C911597FA01E90FF11D2E173F0764F748
:1038C0003B016A0C7B1C90E0681679062CF3169677
:1038D000EC9116977C01EE0EF11C6E147F04E4F659
:1038E000F901E50DF11D2F01441A550A57FCD4CFFB
:1038F00053964D915C915497FA01ED5EFD4F019006
:10390000F081E02D4E165F063CF6610E711C681AC0
:10391000790A77FCC1CFFA01EB5EFD4F808191817E
:10392000681679060CF0B8CF88859985062E02C0F6
:10393000959587950A94E2F780FFAECF8A859B859F
:10394000062E02C0959587950A94E2F7082F01701C
:10395000198A188A17968C91179790E0E888F98849
:10396000E816F9060CF098CF1B8A1A8A1796EC9085
:103970001797F12C8A899B898E159F050CF051C0F1
:10398000E49CC001E59C900DF49C900D11244889A5
:103990005989840F951F5396ED91FC915497FD839F
:1039A000EC8384359105B0F5E69CA001E79C500DB1
:1039B000F69C500D1124EA88FB884E0D5F1D4033A4
:1039C000510540F5FA0113E0F695E7951A95E1F7F0
:1039D00014E51E9F70011F9FF00C11248E0D9F1D7A
:1039E00047705527EC81FD818E0F9F1FEE24E394D5
:1039F000F12C02C0EE0CFF1C4A95E2F7A701002350
:103A000021F0FC01508D452B04C04095FC01508DE8
:103A10004523408F4A895B894F5F5F4F5B8B4A8BA1
:103A2000A5CFE889F9893196F98BE88B93CF58E0D7
:103A3000A50EB11CD7CE67960FB6F894DEBF0FBEA9
:103A4000CDBFDF91CF911F910F91FF90EF90DF904D
:103A5000CF90BF90AF909F908F907F906F905F902E
:103A60004F903F902F9008956F927F928F929F92E8
:103A7000AF92BF92CF92EF920F931F93CF93DF93AA
:103A800000D0CDB7DEB73C015901DC011E961C9277
:103A90001E9754967C936E9353972138394138F48E
:103AA00025E02A9DC0012B9D900D112402C08FEFAF
:103AB0009FEF49835A830E949D35F3019587848740
:103AC0004981A42F5A81B52F40E050E020E030E03A
:103AD000F301848595852A153B050CF034C0BD01A2
:103AE000ED91FC91119785909490FC01E40FF51FE6
:103AF0008282ED91FC911197329685919491F30118
:103B000084849584F401E40FF51F8383ED91FD9186
:103B1000349685919491F30184849584F401E40FA3
:103B2000F51F8483F30184849584840E951EFB0124
:103B3000808191810896F401918380832F5F3F4FAC
:103B40004B5F5F4FC5CFA38621E020830087E182D2
:103B5000C28213821482FC0135E0039FE00DF11D47
:103B600011248281D30115968C9315978381169623
:103B70008C93169717962C930F900F90DF91CF91FF
:103B80001F910F91EF90CF90BF90AF909F908F902B
:103B90007F906F900895CF92DF92EF92FF920F93F4
:103BA0001F93CF93DF9300D0CDB7DEB76C018901AF
:103BB000FC011686748B638B2138394138F425E07B
:103BC000209FC001219F900D112402C08FEF9FEF15
:103BD00049835A830E949D35F601958784874981E0
:103BE000A42F5A81B52F80E090E020E030E0F6016C
:103BF00064857585201731070CF034C0AD01ED9157
:103C0000FC911197E590F490FB01E80FF91FE28217
:103C1000ED91FC911197329665917491F601E484CF
:103C2000F584F701E80FF91F6383ED91FD91349658
:103C300065917491F601E484F584F701E80FF91FAA
:103C40006483F60164857585680F791FFA014081E8
:103C50005181485F5F4FFB01518340832F5F3F4F8E
:103C60000596C5CF038781E080831086118212827A
:103C700013821482FB019281F6019583FB019381EB
:103C8000F601968387830F900F90DF91CF911F915C
:103C90000F91FF90EF90DF90CF9008959091670380
:103CA000E0916103F09162032081422F50E0292FBF
:103CB00030E020953095242335232083E0915D0367
:103CC000F0915E0390916503208161110BC0422F3A
:103CD00050E0292F30E02095309524233523208390
:103CE00048E003C0922B9083FBCFE0915B03F091FF
:103CF0005C0390916403208187FF03C0922B908323
:103D000009C0622F70E0292F30E0209530952623DE
:103D100037232083880F90916303E0915903F0913A
:103D20005A032081622F70E0292F30E020953095D2
:103D3000262337232083000090916303E0915903E9
:103D4000F0915A032081922B9083415071F680911B
:103D50006703E0916103F09162039081892B808376
:103D60000895CF93DF9380916905811147C060E08A
:103D700080E40E944E1E60E080E80E944E1EC9E66C
:103D8000D5E02A91422F441F4427441F822F879554
:103D900088278795542F582B322F32703295330F46
:103DA000307E432F452B922F9470990F990F990FC6
:103DB000392F342B922F9870990F932B422F4071EB
:103DC00050E055954795892F842B322F3072432F21
:103DD00050E093E0559547959A95E1F7842B207430
:103DE00030E045E0359527954A95E1F761E0822B73
:103DF0000E944E1E83E0C137D80719F6DF91CF919C
:103E000008952F923F924F925F926F927F928F927E
:103E10009F92AF92BF92CF92DF92EF92FF920F9359
:103E20001F93CF93DF93CDB7DEB7E9970FB6F89422
:103E3000DEBF0FBECDBF3C016A017B013FAB2EABA5
:103E400019AF08AF411551056105710521F480E3F3
:103E500089831A825DC077FF0BC0F094E094D09400
:103E6000C094C11CD11CE11CF11C21E02DAB01C090
:103E70001DAA5E013CE1A30EB11C45018AE0282E7B
:103E8000312C412C512CC701B601A20191010E9495
:103E9000FD3220E3260FF40121934F018F010A190F
:103EA0001B09A7019601261B370B480B590BCA01AA
:103EB000B901A20191010E94FD3269017A01232B0F
:103EC000242B252B01F7F501E00FF11F10823DA9EE
:103ED000332311F08DE289834DA9E42FF0E0C8016E
:103EE0008E0F9F1FD501A00FB11F21E030E02C0FD6
:103EF0003D1FE20FF31FAA15BB0519F02E91219368
:103F0000FACFE1E0F0E0EC0FFD1FE80FF91F10829F
:103F100028AD39AD4EA95FA9BE016F5F7F4FC301C8
:103F20000E94B516E9960FB6F894DEBF0FBECDBF5E
:103F3000DF91CF911F910F91FF90EF90DF90CF9085
:103F4000BF90AF909F908F907F906F905F904F90B9
:103F50003F902F9008953F924F925F926F927F9281
:103F60008F929F92AF92BF92CF92DF92EF92FF9289
:103F70000F931F93CF93DF9300D000D0CDB7DEB760
:103F8000209106012D3021F02F3F09F02CC204C0F2
:103F9000EEE2F5E2349076C02DE020930601EEE2E9
:103FA000F5E2E491EF3F09F41EC2E13011F1E23095
:103FB00009F443C0E11165C014BC15BC24B52260EE
:103FC00024BD25B5216025BDEAE5F5E2E491F0E0E8
:103FD000EE0FFF1FED5BFA4D25913491309377057D
:103FE00020937605ECE3F5E2E491E0937505312C3E
:103FF0004BC01092800010928100209181002860B7
:104000002093810020918100216020938100EAE5C6
:10401000F5E2E491F0E0EE0FFF1FED5BFA4D259124
:1040200034913093740520937305ECE3F5E2E49149
:10403000E09372053324339427C01092B00010929D
:10404000B1002091B00022602093B0002091B10017
:1040500021602093B100EAE5F5E2E491F0E0EE0F93
:10406000FF1FED5BFA4D259134913093B7022093F9
:10407000B602ECE3F5E2E491E093B502B2E03B2E48
:1040800003C03E2E37FCAFC12A013B018C0161E029
:104090008DE00E94EB154801A12CB12C832D8D7F62
:1040A00009F0BBC060E072E18AE790E0A5019401ED
:1040B0000E94FD3229833A834B835C8369017A0134
:1040C00021E0C21AD108E108F1088FEFC816D10427
:1040D000E104F10409F008F44CC060E472E48FE0FC
:1040E00090E0A50194010E94FD3269017A01E1E0AE
:1040F000CE1AD108E108F108F2E03F1220C02FEFFC
:10410000C216D104E104F10409F008F46AC160E9BF
:1041100070ED83E090E0A50194010E94FD326901F9
:104120007A0181E0C81AD108E108F108EFEFCE1654
:10413000D104E104F10409F0D0F583E067C0FFEF9A
:10414000CF16D104E104F104B1F0A8F068E478EEF0
:1041500081E090E0A50194010E94FD3269017A019D
:1041600081E0C81AD108E108F108332009F4DFC062
:104170002FC181E001C082E03320A1F047C08981D6
:104180009A81AB81BC812AE0B595A79597958795D3
:104190002A95D1F76C017D0121E0C21AD108E1080E
:1041A000F10885E095B5987F892B85BD6FC068E4DF
:1041B00078EE81E090E0A50194010E94FD32690152
:1041C0007A01F1E0CF1AD108E108F1082FEFC21609
:1041D000D104E104F10409F008F4A7C064E274EF2B
:1041E00080E090E0A50194010E94FD3269017A010E
:1041F000E1E0CE1AD108E108F108FFEFCF16D104B3
:10420000E104F10411F008F0B4C085E09091B10030
:10421000987F892B8093B10039C060E072E18AE712
:1042200090E0A50194010E94FD3269017A0181E0CC
:10423000C81AD108E108F108C114D104E1E0EE0682
:10424000F10488F068E478EE81E090E0A501940143
:104250000E94FD3269017A01F1E0CF1AD108E1082C
:10426000F10893E001C091E021E032120FC080918B
:104270008100887F892B809381004114510461045F
:10428000710449F42FEF3FEFA9012DC041145104EF
:104290006104710471F0D801AA0FBB1FA301920140
:1042A0000E941C3328EE33E040E050E00E942F33A0
:1042B00003C02FEF3FEFA90181E03816A1F0E2E043
:1042C0003E1619F131108FC0C7BC20937C05309386
:1042D0007D0540937E0550937F0580916E0082603E
:1042E00080936E0080C0D0928900C0928800209395
:1042F00078053093790540937A0550937B0580913A
:104300006F00826080936F006EC0C092B3002093F4
:10431000B8023093B9024093BA025093BB02809125
:1043200070008260809370005EC084E06FCFFFEF0A
:10433000CF16D104E104F104D1F0C8F062E17AE7CC
:1043400080E090E0A50194010E94FD3269017A01AC
:1043500081E0C81AD108E108F108EFEFCE16D104C8
:10436000E104F10411F008F00ACF84E01BCF83E0F0
:1043700019CF62E17AE780E090E0A50194010E9404
:10438000FD3269017A0181E0C81AD108E108F1081B
:10439000EFEFCE16D104E104F104C1F0B8F0898149
:1043A0009A81AB81BC814AE0B595A7959795879591
:1043B0004A95D1F76C017D0121E0C21AD108E108CC
:1043C000F108332009F4EDCE87E020CF86E0D4CE8B
:1043D000FFEFCF16D104E104F10409F050F684E0B8
:1043E000CBCE82E013CF0F900F900F900F90DF9104
:1043F000CF911F910F91FF90EF90DF90CF90BF90E2
:10440000AF909F908F907F906F905F904F903F9074
:10441000089585E480937C0080917A008064809385
:104420007A0080917A0086FDFCCF809178002091FF
:10443000790090E0922B0895CF93DF93CDB7DEB74C
:10444000CB58D1090FB6F894DEBF0FBECDBF78941C
:1044500084B5826084BD84B5816084BD85B5826089
:1044600085BD85B5816085BD80916E00816080933A
:104470006E001092810080918100826080938100A3
:1044800080918100816080938100809180008160B3
:10449000809380008091B10084608093B10080910E
:1044A000B00081608093B00080917A008460809336
:1044B0007A0080917A00826080937A0080917A00FD
:1044C000816080937A0080917A00806880937A007E
:1044D0001092C10061E083E00E94EB1560E083E090
:1044E0000E9439158AE591E00E944518082F8BE556
:1044F00091E00E94451811E0833509F010E091E049
:104500000D3409F090E019238CE591E00E944518E4
:1045100091E0843509F090E019238DE591E00E9447
:104520004518112341F08E3431F480ED97E09093DB
:10453000030180930201A8950E94101920917F0227
:1045400030918002409181025091820260918302F9
:1045500070918402809185029091860220563F4F8F
:104560004F4F5F4F6F4F7F4F8F4F9F4F19012A0162
:104570003B014C0120937F023092800240938102E4
:10458000509282026093830270928402809385022B
:104590009092860280910401882309F40AC1209137
:1045A0007A0230917B02A101421B530B2091020140
:1045B000309103012417350708F0FBC090918A025F
:1045C0009630A8F420918802211122C020918902FE
:1045D0002A30F0F42091870221110C94DD308630CE
:1045E00011F00C94DD309F5F90938A0211C08630E9
:1045F00078F49091880291110BC0909189029A30C1
:1046000038F490918702911103C08F5F8093040169
:104610000E94092264EA70E00E94DD349C01990F37
:10462000440B550BC358DF4F288339834A835B8380
:10463000CD57D04010EDA12E07E0B02EC12CD12CCB
:10464000E12CF12C00E010E09101A201B301C401C2
:104650000E94F73449015A01C358DF4F68817981BC
:104660008A819B81CD57D040680D791D8A1D9B1D85
:104670000E94D91463E070E080E090E00E94B514DD
:10468000672B682B692B09F046C08091890284361C
:1046900018F48D5F8093890220917F02309180020F
:1046A0004091810250918202609183027091840254
:1046B000BBE0AB2EB12CC12CD12CE12CF12C00E0B5
:1046C00010E080918502909186020E94F734690182
:1046D0007A010E9409226AE470E00E94DD34092E0A
:1046E000000CAA0BBB0BBC01CD016C0D7D1D8E1DFA
:1046F0009F1D0E94D91480918702823060F461E08E
:1047000070E080E090E00E94B514672B682B692B65
:1047100011F40C94AD30C0907F02D0908002E090F4
:104720008102F09082020E94092261E570E00E94FD
:10473000DD34092E000CAA0BBB0BBC01CD016C0DA6
:104740007D1D8E1D9F1D0E94D914809189028B3082
:1047500080F080918702823060F063E070E080E05A
:1047600090E00E94B514672B682B692B11F40C9410
:10477000B43080918902843621F0809188028130A2
:1047800071F480910401882319F081508093040111
:1047900080918A02882319F0815080938A02809147
:1047A0007F029091800290937B0280937A020E9414
:1047B000381A0E94381A62E08EE00E94EB1562E01F
:1047C0008FE00E94EB1562E080E10E94EB150E94F1
:1047D000471880917C0281110AC080917702811173
:1047E00006C080917602811102C00E94EB1A0E94DD
:1047F0001019E091CC02F091CD0282E08083E0912B
:10480000C802F091C9021082E091CA02F091CB0275
:104810008FEC80831092D402E091D002F091D1020B
:1048200086E08083E091CE02F091CF0280818061AA
:104830008083E091CE02F091CF02808188608083F6
:10484000E091CE02F091CF02808180688083E09178
:10485000CE02F091CF0280818F7D808361E088E07D
:104860000E94EB1562E08EE00E94EB1562E08FE0A3
:104870000E94EB1562E080E10E94EB15809100013F
:10488000882311F061E001C060E088E00E943915E2
:1048900080916503E0915D03F0915E039081892B27
:1048A000808380916403E0915B03F0915C039081CD
:1048B000892B808380916303E0915903F0915A031F
:1048C0009081892B808380916703E0916103F0914F
:1048D00062039081892B808390916603E0915F034E
:1048E000F09160038081282F30E0892F90E080953F
:1048F00090958223932380836AE070E080E090E0CB
:104900000E94271680916603E0915F03F091600397
:104910009081892B808360E081E20E944E1E60E0DE
:1049200086EC0E944E1E60E086E00E944E1E60E013
:1049300083E10E944E1E60E080E20E944E1E60E015
:1049400080E40E944E1E60E080E80E944E1E60E0FF
:104950008CE00E944E1EE1E7F3E0119235E0E9366B
:10496000F307D9F780916905882359F010926905FA
:1049700086E490E090936B0580936A05E1E7F3E0AD
:1049800015C060E080E40E944E1E60E080E80E9456
:104990004E1E01E713E061E0D8018D918D010E9468
:1049A0004E1EB5E009361B07B1F7E0CF119225E0A6
:1049B000E936F207D9F7E8ECF2E2F0936B03E09303
:1049C0006A03E491E0936C03E9ECF2E2E491E09392
:1049D0006D03EAECF2E2E491E0936E03EBECF2E2B9
:1049E000E491E0936F031092700361E08DE00E9408
:1049F000EB158EE0E1E1F1E0DE01AB5ABF4F019033
:104A00000D928A95E1F785E190E00E949D355C0169
:104A100002E0C02ED12C82E0E82EF12C06E010E05E
:104A200027E030E0AE014B5A5F4F69E573E0C50106
:104A30000E94341DB092A302A092A2028EE0EFE188
:104A4000F1E0DE01A95BBF4F01900D928A95E1F77D
:104A500085E190E00E949D355C019BE3E92EF12CFD
:104A600027E030E0AE01495B5F4F69E573E0C501C7
:104A70000E94341DB092A102A092A00284E592E2AD
:104A8000ED969FAF8EAFED9785E190E00E949D354A
:104A90005C012BE0C22ED12C37E0E32EF12C00E09C
:104AA00010E021E030E0AE0145585F4F69E573E06A
:104AB0000E94341DB0929F02A0929E0280EE91E26D
:104AC000EB969FAF8EAFEB9785E190E00E949D350E
:104AD0005C014AE3E42EF12C21E030E0AE014758BE
:104AE0005F4F69E573E00E94341DB0929D02A09271
:104AF0009C0286E0EDE2F1E0DE01A559BF4F019096
:104B00000D928A95E1F785E190E00E949D355C0168
:104B10005EE1C52ED12C65E0E62EF12C02E010E01E
:104B200023E030E0AE0145595F4F69E573E00E9434
:104B3000341DB0929B02A0929A0286E2E3E3F1E078
:104B4000AE014F5F5F4F5A01DA0101900D928A95D5
:104B5000E1F785E190E00E949D358C0123E130E092
:104B6000A50169E573E00E94CB1D109399020093A3
:104B7000980280EB91E2E9969FAF8EAFE99785E1CD
:104B800090E00E949D358C0121E030E0AE01495853
:104B90005F4F69E573E00E94CB1D10938D02009377
:104BA0008C028AE991E2E7969FAF8EAFE79785E1A5
:104BB00090E00E949D358C0121E030E0AE014B5821
:104BC0005F4F69E573E00E94CB1D10939102009343
:104BD000900280E1E9E5F1E0DE01D79601900D92C7
:104BE0008A95E1F785E190E00E949D354C017AE0DD
:104BF000C72ED12CE6E0EE2EF12C00E010E028E0EC
:104C000030E0AE01495C5F4F69E573E00E94341DFE
:104C1000909297028092960280E1E9E6F1E0DE014F
:104C2000979601900D928A95E1F785E190E00E94B8
:104C30009D354C01FEE1CF2ED12C28E030E0AE01B5
:104C4000495D5F4F69E573E00E94341D90929502C3
:104C50008092940288E0E9E7F1E0DE01AD59BF4FB0
:104C600001900D928A95E1F785E190E00E949D35D3
:104C70008C0124E030E0AE014D595F4F69E573E0EF
:104C80000E94CB1D10938F0200938E0282EB9FE156
:104C9000E3969FAF8EAFE3978AEC9DE1E5969FAFD9
:104CA0008EAFE59785E190E00E949D354C01AAE02A
:104CB000CA2ED12CE12CF12C00E010E022E030E0F3
:104CC000AE014F585F4F69E573E00E94341D90922A
:104CD000930280929202C501BB0CAA0BBB0BC85772
:104CE000DF4F88839983AA83BB83C858D040E1E70C
:104CF000F3E0119295E0E936F907D9F780918B023C
:104D000081110AC080910401811106C085E00E94D2
:104D10000C1B81E080938B0220907F0230908002F8
:104D200040908102509082026090830270908402D1
:104D3000809085029090860280917A0290917B0209
:104D40009101281B390B8091020190910301821778
:104D5000930708F06AC180910401882309F45DC1BA
:104D60000E94092263ED70E00E94DD349C01990FDE
:104D7000440B550BC358DF4F288339834A835B8329
:104D8000CD57D04015E0A12EB12CC12CD12CE12C57
:104D9000F12C00E010E09101A201B301C4010E94D6
:104DA000F73449015A01C358DF4F688179818A81FC
:104DB0009B81CD57D040680D791D8A1D9B1D0E9497
:104DC000D91480917E02823000F580918A0286306B
:104DD000E1F480918802811118C0809189028A30A3
:104DE000A0F480918702811110C080910401843069
:104DF00060F063E070E080E090E00E94B514672B03
:104E0000682B692B11F40C94B93080918A0286309A
:104E1000B0F490918802911112C0909189029A3059
:104E200070F49091870291110AC09091040196301C
:104E300031F48F5F80938A0283E00E940C1B809183
:104E40000401863078F49091880291110BC0909102
:104E500089029A3038F490918702911103C08F5FD4
:104E60008093040120917F02309180024091810261
:104E7000509182026091830270918402BBE0AB2E5C
:104E8000B12CC12CD12CE12CF12C00E010E0809150
:104E90008502909186020E94F73469017A010E948E
:104EA00009226AE470E00E94DD34092E000CAA0B8E
:104EB000BB0BBC01CD016C0D7D1D8E1D9F1D0E9485
:104EC000D91463E070E080E090E00E94B514672B95
:104ED000682B692B09F046C080918902843618F44A
:104EE0008D5F8093890220917F02309180024091F2
:104EF0008102509182026091830270918402ABE042
:104F0000AA2EB12CC12CD12CE12CF12C00E010E008
:104F100080918502909186020E94F73469017A019E
:104F20000E9409226AE470E00E94DD34092E000C20
:104F3000AA0BBB0BBC01CD016C0D7D1D8E1D9F1DF1
:104F40000E94D91480918702823060F461E070E0A1
:104F500080E090E00E94B514672B682B692B11F458
:104F60000C94C23020917F023091800240918102E6
:104F7000509182026091830270918402F9E0AF2E19
:104F8000B12CC12CD12CE12CF12C00E010E080914F
:104F90008502909186020E94F73469017A010E948D
:104FA000092265E470E00E94DD34092E000CAA0B92
:104FB000BB0BBC01CD016C0D7D1D8E1D9F1D0E9484
:104FC000D914809189028B3080F0809187028230E1
:104FD00060F063E070E080E090E00E94B514672B21
:104FE000682B692B11F40C94C930809189028436A6
:104FF00021F080918802813071F48091040188232E
:1050000019F081508093040180918A02882319F05D
:10501000815080938A020E94381A80917F02909179
:10502000800290937B0280937A020E94AE18809156
:10503000A2029091A30210910401DC0118961C9326
:105040000E94B81B8091A0029091A10220918A0237
:10505000FC0120870E94B81B28E230E0112379F080
:1050600040E050E061E971E089E593E00E94B51607
:1050700028E230E04BE150E066E971E00EC042E02A
:1050800050E062ED71E089E593E00E94B51628E2F8
:1050900030E046E150E061EA71E089E593E00E948A
:1050A000B51628E230E046E350E06BE971E089E5AF
:1050B00093E00E94B516F0918902EE96FFAFEE974D
:1050C000FB3030F080919E0290919F020E94B81BAD
:1050D00020918802CB57DF4F2883C558D040222328
:1050E00031F080919C0290919D020E94B81B8091AA
:1050F0009A0290919B0260908702DC0118966C9254
:105100000E94B81BE0909802F09099028AE0F701A3
:10511000828370907F028090800290908102A090A4
:105120008202B0908302C0908402D09085020091E8
:105130008602272D382D492D5A2D6B2D7C2D8D2D36
:10514000902F0E94033420E030E040E05EE30E94B4
:1051500029320E94413420916C0530916D0537FF52
:1051600002C02F5F3F4FA90155954795CA57DF4FA2
:1051700059834883C658D0409B01AC010E946133DB
:105180001B012C01CA57DF4FA881B981C658D040F6
:10519000BD01BB0F880B990B0E94EE319B01AC0146
:1051A000C201B1010E9461331B012C01C7010E94A1
:1051B000A71B97FD0196BC0175956795072E000CFE
:1051C000880B990B0E94EE319B01AC01C201B10129
:1051D0000E9460330E94CD33F7016183272D382D63
:1051E000492D5A2D6B2D7C2D8D2D902F04E00E9482
:1051F0005835217080917E02982F990F890F880F62
:10520000280F611010C0EE96FFADEE97FB3058F4FA
:10521000CB57DF4F3881C558D040311104C0D7017A
:1052200018962C9303C02C5FF7012087111114C02E
:10523000C7010E94A71B97FD019695958795CA57B0
:10524000DF4FF881C658D040F81BD7011196FC9368
:10525000119782E118968C93C7010E94B81B809128
:105260007D02882301F11123F1F081E00E940C1BE3
:105270000E94381AE1E7F3E01192B5E0E936FB0746
:10528000D9F723E130E042E150E067EA71E089E5D7
:1052900093E00E94B5160E94B11E64EF71E080E0B9
:1052A00090E00E94271680917C02882309F41CC19B
:1052B00040907F0250908002609081027090820244
:1052C0008090830290908402A0908502B090860224
:1052D0009201A301B401C50100E30E945835EE9686
:1052E0002FAFEE97EF963FAFEF97C158DF4F488350
:1052F000CF57D040C058DF4F5883C058D040C35814
:10530000DF4F488159816A817B81CD57D040662724
:10531000772708E010E021E030E089E593E00E9483
:10532000011F9201A301B401C50100E20E9458359A
:10533000EE962FAFEE97EF963FAFEF97C158DF4F46
:105340004883CF57D040C058DF4F5883C058D04013
:10535000C358DF4F488159816A817B81CD57D04046
:105360006627772700E110E021E030E089E593E04F
:105370000E94011F9201A301B401C5010E9458358A
:10538000EE962FAFEE97EF963FAFEF97C158DF4FF6
:105390004883CF57D040C058DF4F5883C058D040C3
:1053A000CF57DF4F6883C158D040CE57DF4F788347
:1053B000C258D040CD57DF4F8883C358D040CC5718
:1053C000DF4F9883C458D040C358DF4F488159817C
:1053D0006A817B81CD57D0406627772708E110E0AE
:1053E00021E030E089E593E00E94011FB301A201B2
:1053F0006627772700E210E021E030E089E593E0BE
:105400000E94011F4091020150910301052E000CE2
:10541000660B770B00E010E02BE130E089E593E0CC
:105420000E94011F4091890250E060E070E008E0B6
:1054300010E02BE130E089E593E00E94011F4091EC
:105440007A0250917B0260E070E000E110E02BE115
:1054500030E089E593E00E94011F0E940922AC011F
:10546000990F660B770B08E110E02BE130E089E53E
:1054700093E00E94011F81E090E00E949D357C0135
:1054800028E030E042E350E060EB71E089E593E032
:105490000E94B516A7010F2C000C660B770B00E1DC
:1054A00010E025E330E089E593E00E94011F28E148
:1054B00030E042E350E065EB71E089E593E00E9463
:1054C000B51600E210E025E330E0C857DF4F488111
:1054D00059816A817B81C858D04089E593E00E9458
:1054E000011FC7010E94323680917902882309F496
:1054F00025C681E00E940C1B80910401882309F4D9
:105500001BC6412C0E94AE188091A2029091A3026A
:105510000E94B81B21E030E04EE150E066E971E006
:1055200089E593E00E94B5168091A0029091A102B6
:105530000E94B81B28E230E042E050E06BEB71E0E3
:1055400089E593E00E94B51628E230E04EE150E094
:1055500060EC71E089E593E00E94B51628E230E046
:105560004AE350E065EC71E089E593E00E94B516EE
:10557000209096023090970286E0F10181832AE024
:10558000F22EF2826090940270909502D3011196EF
:105590008C931197EEE11296EC93C1010E94B81B17
:1055A000C3010E94B81BD1011B964C9150E060E0F2
:1055B00070E004E110E02CE230E089E593E00E9425
:1055C000011F24E130E047E250E06AEC71E089E538
:1055D00093E00E94B516F101408550E04F5F5F4FA8
:1055E000052E000C660B770B22E230E089E593E094
:1055F0000E94011F8090980290909902D401129607
:10560000FC92F0907F020091800210918102B09193
:105610008202EE96BFAFEE97E0918302CB57DF4F49
:10562000E883C558D040F0918402CA57DF4FF88311
:10563000C658D04050908502E09086022F2D302F22
:10564000412F5B2FBF01852D9E2D0E94033420E04A
:1056500030E040E05EE30E9429320E9441349B0129
:10566000AC010E9461335B016C0160916C0570912B
:105670006D0577FF02C06F5F7F4F75956795072EA9
:10568000000C880B990B0E94EE319B01AC01C60106
:10569000B5010E9461335B016C01C4010E94A71B2C
:1056A00097FD0196BC0175956795072E000C880B38
:1056B000990B0E94EE319B01AC01C601B5010E941D
:1056C00060330E94CD33685ED40111966C931197BC
:1056D000D0907E028D2D880FD80EDD0C2F2D302F0F
:1056E000412FEE965FADEE97CB57DF4F6881C558DF
:1056F000D040CA57DF4F7881C658D040852D9E2DA7
:1057000004E00E94583521702D0D18962C9380913D
:105710008702811108C0809189028B3020F480912A
:105720008802882319F02C5FF4012087C4010E94AD
:10573000B81B80917D02882309F181E00E940C1B37
:10574000D1011B962C911B9718968C911897820F5C
:10575000815018968C931897F3018085820F8150A1
:10576000808718968C911897622F0E94D1341896D2
:105770009C9380850E94D1349087412C809179023E
:10578000882309F4B0C481E00E940C1BD101189653
:10579000EC918E2F90E08830910508F0A4C4FC01B4
:1057A000EC5CFF4F0C94F13468EE73E080E090E025
:1057B0000E94271683E00E940C1B10E0BB24B394C8
:1057C0000CE1C02E0AE0D394D3940E94AE182EE1CF
:1057D000F3012183B282C3010E94B81BD401119648
:1057E000CC92119712960C93129714FB882780F98C
:1057F0008D0D18968C93C4010E94B81BE0908C020A
:10580000F0908D022EE1F7012183612F70E080E09E
:1058100090E00E94EC3120E030E040E05FE30E9445
:1058200029320E9441349B01AC010E9461330E94E5
:10583000CD33635FD70112966C93C7010E94B81BEA
:105840000E94B11E1F5F163409F0BFCF109288026C
:105850004AC468EE73E080E090E00E94271683E07F
:105860000E940C1BE12CF12CAA24A394A2E2BA2ED4
:10587000BAE0CB2ED394D39414E10E94AE182EE15B
:10588000F3012183A282C3010E94B81BD4011196A7
:10589000BC9211971296CC92129720917F02309170
:1058A0008002409181025091820260918302709146
:1058B0008402809185029091860204E00E9458350E
:1058C00021702D0D18962C93C4010E94B81BE091F5
:1058D0008E02F0918F02638570E06150710986E459
:1058E00090E00E94DD34C7010E94DD34608711839F
:1058F0001283CF010E94B81B0E94B11EBFEFEB1AAA
:10590000FB0AE6E4EE16F10409F0B7CF1092890223
:10591000EAC368EE73E080E090E00E9427166FE033
:10592000E62EF12C00E010E0BB24B39474E1A72E26
:10593000E3E2CE2ED12CF2E09F2E0E94AE18809191
:10594000940290919502EEE1DC011196EC9311978F
:105950001296BC920E94B81BE0919602F0919702B9
:10596000C80166E470E00E94DD346183A282CF0149
:105970000E94B81BE0919A02F0919B02C701B60108
:105980000E94DD34892D861B8087CF010E94B81BC1
:1059900080917C028823E1F0809179028823C1F014
:1059A000809176028823A1F06DE48AE591E00E945F
:1059B000431863E58BE591E00E94431864E58CE5AC
:1059C00091E00E9443186EE48DE591E00E94431837
:1059D0000E94B11E0C5A1F4FFFEFEF1AFF0A083F3B
:1059E00026E1120709F0A9CF109287027CC30E941A
:1059F000AE18EEE1D3011196EC93119711E01296D7
:105A00001C93C3010E94B81B28E230E042E050E042
:105A10006CEC71E089E593E00E94B51628E230E075
:105A20004EE150E060EC71E089E593E00E94B5162C
:105A300028E230E04AE350E061ED71E089E593E06F
:105A40000E94B5168091920290919302DC01189603
:105A50001C930E94B81B0E94B11E60ED77E080E0AD
:105A600090E00E9427160E94471880917D028823AB
:105A700021F081E00E940C1B36C3809179028823BB
:105A8000B1F081E00E940C1B88E5882E82E0982E00
:105A9000A12CB12CF12C9DE1E92E24E1C22ED12CB8
:105AA0003AE0732E4AE1642E5DE0552E08C08091E5
:105AB00078028823C1F281E00E940C1BD4CF0E949F
:105AC000AE1821E030E041E050E066ED71E089E59C
:105AD00093E00E94B51609E010E021E030E0B50146
